{
  "abi": [
    {
      "inputs": [
        {
          "internalType": "string",
          "name": "_name",
          "type": "string"
        },
        {
          "internalType": "string",
          "name": "_symbol",
          "type": "string"
        },
        {
          "internalType": "string",
          "name": "_initBaseURI",
          "type": "string"
        }
      ],
      "stateMutability": "nonpayable",
      "type": "constructor"
    },
    {
      "anonymous": false,
      "inputs": [
        {
          "indexed": true,
          "internalType": "address",
          "name": "owner",
          "type": "address"
        },
        {
          "indexed": true,
          "internalType": "address",
          "name": "approved",
          "type": "address"
        },
        {
          "indexed": true,
          "internalType": "uint256",
          "name": "tokenId",
          "type": "uint256"
        }
      ],
      "name": "Approval",
      "type": "event"
    },
    {
      "anonymous": false,
      "inputs": [
        {
          "indexed": true,
          "internalType": "address",
          "name": "owner",
          "type": "address"
        },
        {
          "indexed": true,
          "internalType": "address",
          "name": "operator",
          "type": "address"
        },
        {
          "indexed": false,
          "internalType": "bool",
          "name": "approved",
          "type": "bool"
        }
      ],
      "name": "ApprovalForAll",
      "type": "event"
    },
    {
      "anonymous": false,
      "inputs": [
        {
          "indexed": true,
          "internalType": "address",
          "name": "previousOwner",
          "type": "address"
        },
        {
          "indexed": true,
          "internalType": "address",
          "name": "newOwner",
          "type": "address"
        }
      ],
      "name": "OwnershipTransferred",
      "type": "event"
    },
    {
      "anonymous": false,
      "inputs": [
        {
          "indexed": true,
          "internalType": "address",
          "name": "from",
          "type": "address"
        },
        {
          "indexed": true,
          "internalType": "address",
          "name": "to",
          "type": "address"
        },
        {
          "indexed": true,
          "internalType": "uint256",
          "name": "tokenId",
          "type": "uint256"
        }
      ],
      "name": "Transfer",
      "type": "event"
    },
    {
      "inputs": [],
      "name": "age",
      "outputs": [
        {
          "internalType": "uint256",
          "name": "",
          "type": "uint256"
        }
      ],
      "stateMutability": "view",
      "type": "function"
    },
    {
      "inputs": [
        {
          "internalType": "address",
          "name": "to",
          "type": "address"
        },
        {
          "internalType": "uint256",
          "name": "tokenId",
          "type": "uint256"
        }
      ],
      "name": "approve",
      "outputs": [],
      "stateMutability": "nonpayable",
      "type": "function"
    },
    {
      "inputs": [
        {
          "internalType": "address",
          "name": "owner",
          "type": "address"
        }
      ],
      "name": "balanceOf",
      "outputs": [
        {
          "internalType": "uint256",
          "name": "",
          "type": "uint256"
        }
      ],
      "stateMutability": "view",
      "type": "function"
    },
    {
      "inputs": [],
      "name": "baseExtension",
      "outputs": [
        {
          "internalType": "string",
          "name": "",
          "type": "string"
        }
      ],
      "stateMutability": "view",
      "type": "function"
    },
    {
      "inputs": [],
      "name": "baseURI",
      "outputs": [
        {
          "internalType": "string",
          "name": "",
          "type": "string"
        }
      ],
      "stateMutability": "view",
      "type": "function"
    },
    {
      "inputs": [
        {
          "internalType": "uint256",
          "name": "_tokenURI",
          "type": "uint256"
        }
      ],
      "name": "changeAge",
      "outputs": [],
      "stateMutability": "nonpayable",
      "type": "function"
    },
    {
      "inputs": [],
      "name": "checkAge",
      "outputs": [
        {
          "internalType": "uint256",
          "name": "",
          "type": "uint256"
        }
      ],
      "stateMutability": "view",
      "type": "function"
    },
    {
      "inputs": [
        {
          "internalType": "uint256",
          "name": "tokenId",
          "type": "uint256"
        }
      ],
      "name": "getApproved",
      "outputs": [
        {
          "internalType": "address",
          "name": "",
          "type": "address"
        }
      ],
      "stateMutability": "view",
      "type": "function"
    },
    {
      "inputs": [
        {
          "internalType": "address",
          "name": "owner",
          "type": "address"
        },
        {
          "internalType": "address",
          "name": "operator",
          "type": "address"
        }
      ],
      "name": "isApprovedForAll",
      "outputs": [
        {
          "internalType": "bool",
          "name": "",
          "type": "bool"
        }
      ],
      "stateMutability": "view",
      "type": "function"
    },
    {
      "inputs": [],
      "name": "maxSupply",
      "outputs": [
        {
          "internalType": "uint256",
          "name": "",
          "type": "uint256"
        }
      ],
      "stateMutability": "view",
      "type": "function"
    },
    {
      "inputs": [
        {
          "internalType": "address",
          "name": "_to",
          "type": "address"
        },
        {
          "internalType": "uint256",
          "name": "_mintAmount",
          "type": "uint256"
        }
      ],
      "name": "mint",
      "outputs": [],
      "stateMutability": "payable",
      "type": "function"
    },
    {
      "inputs": [],
      "name": "name",
      "outputs": [
        {
          "internalType": "string",
          "name": "",
          "type": "string"
        }
      ],
      "stateMutability": "view",
      "type": "function"
    },
    {
      "inputs": [],
      "name": "nest",
      "outputs": [],
      "stateMutability": "nonpayable",
      "type": "function"
    },
    {
      "inputs": [],
      "name": "newAge",
      "outputs": [
        {
          "internalType": "uint256",
          "name": "",
          "type": "uint256"
        }
      ],
      "stateMutability": "view",
      "type": "function"
    },
    {
      "inputs": [],
      "name": "owner",
      "outputs": [
        {
          "internalType": "address",
          "name": "",
          "type": "address"
        }
      ],
      "stateMutability": "view",
      "type": "function"
    },
    {
      "inputs": [
        {
          "internalType": "uint256",
          "name": "tokenId",
          "type": "uint256"
        }
      ],
      "name": "ownerOf",
      "outputs": [
        {
          "internalType": "address",
          "name": "",
          "type": "address"
        }
      ],
      "stateMutability": "view",
      "type": "function"
    },
    {
      "inputs": [
        {
          "internalType": "bool",
          "name": "_state",
          "type": "bool"
        }
      ],
      "name": "pause",
      "outputs": [],
      "stateMutability": "nonpayable",
      "type": "function"
    },
    {
      "inputs": [],
      "name": "paused",
      "outputs": [
        {
          "internalType": "bool",
          "name": "",
          "type": "bool"
        }
      ],
      "stateMutability": "view",
      "type": "function"
    },
    {
      "inputs": [
        {
          "internalType": "address",
          "name": "_user",
          "type": "address"
        }
      ],
      "name": "removeWhitelistUser",
      "outputs": [],
      "stateMutability": "nonpayable",
      "type": "function"
    },
    {
      "inputs": [],
      "name": "renounceOwnership",
      "outputs": [],
      "stateMutability": "nonpayable",
      "type": "function"
    },
    {
      "inputs": [
        {
          "internalType": "address",
          "name": "from",
          "type": "address"
        },
        {
          "internalType": "address",
          "name": "to",
          "type": "address"
        },
        {
          "internalType": "uint256",
          "name": "tokenId",
          "type": "uint256"
        }
      ],
      "name": "safeTransferFrom",
      "outputs": [],
      "stateMutability": "nonpayable",
      "type": "function"
    },
    {
      "inputs": [
        {
          "internalType": "address",
          "name": "from",
          "type": "address"
        },
        {
          "internalType": "address",
          "name": "to",
          "type": "address"
        },
        {
          "internalType": "uint256",
          "name": "tokenId",
          "type": "uint256"
        },
        {
          "internalType": "bytes",
          "name": "_data",
          "type": "bytes"
        }
      ],
      "name": "safeTransferFrom",
      "outputs": [],
      "stateMutability": "nonpayable",
      "type": "function"
    },
    {
      "inputs": [
        {
          "internalType": "address",
          "name": "operator",
          "type": "address"
        },
        {
          "internalType": "bool",
          "name": "approved",
          "type": "bool"
        }
      ],
      "name": "setApprovalForAll",
      "outputs": [],
      "stateMutability": "nonpayable",
      "type": "function"
    },
    {
      "inputs": [
        {
          "internalType": "string",
          "name": "_newBaseExtension",
          "type": "string"
        }
      ],
      "name": "setBaseExtension",
      "outputs": [],
      "stateMutability": "nonpayable",
      "type": "function"
    },
    {
      "inputs": [
        {
          "internalType": "string",
          "name": "_newBaseURI",
          "type": "string"
        }
      ],
      "name": "setBaseURI",
      "outputs": [],
      "stateMutability": "nonpayable",
      "type": "function"
    },
    {
      "inputs": [
        {
          "internalType": "bytes4",
          "name": "interfaceId",
          "type": "bytes4"
        }
      ],
      "name": "supportsInterface",
      "outputs": [
        {
          "internalType": "bool",
          "name": "",
          "type": "bool"
        }
      ],
      "stateMutability": "view",
      "type": "function"
    },
    {
      "inputs": [],
      "name": "symbol",
      "outputs": [
        {
          "internalType": "string",
          "name": "",
          "type": "string"
        }
      ],
      "stateMutability": "view",
      "type": "function"
    },
    {
      "inputs": [
        {
          "internalType": "uint256",
          "name": "index",
          "type": "uint256"
        }
      ],
      "name": "tokenByIndex",
      "outputs": [
        {
          "internalType": "uint256",
          "name": "",
          "type": "uint256"
        }
      ],
      "stateMutability": "view",
      "type": "function"
    },
    {
      "inputs": [
        {
          "internalType": "address",
          "name": "owner",
          "type": "address"
        },
        {
          "internalType": "uint256",
          "name": "index",
          "type": "uint256"
        }
      ],
      "name": "tokenOfOwnerByIndex",
      "outputs": [
        {
          "internalType": "uint256",
          "name": "",
          "type": "uint256"
        }
      ],
      "stateMutability": "view",
      "type": "function"
    },
    {
      "inputs": [
        {
          "internalType": "uint256",
          "name": "tokenId",
          "type": "uint256"
        }
      ],
      "name": "tokenURI",
      "outputs": [
        {
          "internalType": "string",
          "name": "",
          "type": "string"
        }
      ],
      "stateMutability": "view",
      "type": "function"
    },
    {
      "inputs": [],
      "name": "totalSupply",
      "outputs": [
        {
          "internalType": "uint256",
          "name": "",
          "type": "uint256"
        }
      ],
      "stateMutability": "view",
      "type": "function"
    },
    {
      "inputs": [
        {
          "internalType": "address",
          "name": "from",
          "type": "address"
        },
        {
          "internalType": "address",
          "name": "to",
          "type": "address"
        },
        {
          "internalType": "uint256",
          "name": "tokenId",
          "type": "uint256"
        }
      ],
      "name": "transferFrom",
      "outputs": [],
      "stateMutability": "nonpayable",
      "type": "function"
    },
    {
      "inputs": [
        {
          "internalType": "address",
          "name": "newOwner",
          "type": "address"
        }
      ],
      "name": "transferOwnership",
      "outputs": [],
      "stateMutability": "nonpayable",
      "type": "function"
    },
    {
      "inputs": [
        {
          "internalType": "address",
          "name": "_owner",
          "type": "address"
        }
      ],
      "name": "walletOfOwner",
      "outputs": [
        {
          "internalType": "uint256[]",
          "name": "",
          "type": "uint256[]"
        }
      ],
      "stateMutability": "view",
      "type": "function"
    },
    {
      "inputs": [
        {
          "internalType": "address",
          "name": "_user",
          "type": "address"
        }
      ],
      "name": "whitelistUser",
      "outputs": [],
      "stateMutability": "nonpayable",
      "type": "function"
    },
    {
      "inputs": [
        {
          "internalType": "address",
          "name": "",
          "type": "address"
        }
      ],
      "name": "whitelisted",
      "outputs": [
        {
          "internalType": "bool",
          "name": "",
          "type": "bool"
        }
      ],
      "stateMutability": "view",
      "type": "function"
    },
    {
      "inputs": [],
      "name": "withdraw",
      "outputs": [],
      "stateMutability": "payable",
      "type": "function"
    }
  ],
  "bytecode": {
    "object": "0x60c06040526005608090815264173539b7b760d91b60a052600c9062000026908262000938565b506109c4600d55600e805460ff1916905563608f3d00601055600060118190556012553480156200005657600080fd5b506040516200305638038062003056833981016040819052620000799162000abb565b8282600062000089838262000938565b50600162000098828262000938565b505050620000b5620000af620000d660201b60201c565b620000da565b620000c0816200012c565b620000cd3360016200019e565b50505062000c65565b3390565b600a80546001600160a01b038381166001600160a01b0319831681179093556040519116919082907f8be0079c531659141344cd1fd0a4f28419497f9722a3daafe3b4186f6b6457e090600090a35050565b600a546001600160a01b031633146200018c5760405162461bcd60e51b815260206004820181905260248201527f4f776e61626c653a2063616c6c6572206973206e6f7420746865206f776e657260448201526064015b60405180910390fd5b600b6200019a828262000938565b5050565b6000620001aa60085490565b600e5490915060ff1615620001be57600080fd5b6001821015620001cd57600080fd5b600d54620001dc838362000b62565b1115620001e857600080fd5b60015b8281116200021f576200020a8462000204838562000b62565b62000225565b80620002168162000b7e565b915050620001eb565b50505050565b6200019a8282604051806020016040528060008152506200024760201b60201c565b620002538383620002bf565b62000262600084848462000415565b620002ba5760405162461bcd60e51b815260206004820152603260248201526000805160206200303683398151915260448201527131b2b4bb32b91034b6b83632b6b2b73a32b960711b606482015260840162000183565b505050565b6001600160a01b038216620003175760405162461bcd60e51b815260206004820181905260248201527f4552433732313a206d696e7420746f20746865207a65726f2061646472657373604482015260640162000183565b6000818152600260205260409020546001600160a01b0316156200037e5760405162461bcd60e51b815260206004820152601c60248201527f4552433732313a20746f6b656e20616c7265616479206d696e74656400000000604482015260640162000183565b6200038c6000838362000571565b6001600160a01b0382166000908152600360205260408120805460019290620003b790849062000b62565b909155505060008181526002602052604080822080546001600160a01b0319166001600160a01b03861690811790915590518392907fddf252ad1be2c89b69c2b068fc378daa952ba7f163c4a11628f55a4df523b3ef908290a45050565b600062000436846001600160a01b03166200064d60201b6200126a1760201c565b156200056557604051630a85bd0160e11b81526001600160a01b0385169063150b7a02906200047090339089908890889060040162000b9a565b6020604051808303816000875af1925050508015620004ae575060408051601f3d908101601f19168201909252620004ab9181019062000bf0565b60015b6200054a573d808015620004df576040519150601f19603f3d011682016040523d82523d6000602084013e620004e4565b606091505b508051600003620005425760405162461bcd60e51b815260206004820152603260248201526000805160206200303683398151915260448201527131b2b4bb32b91034b6b83632b6b2b73a32b960711b606482015260840162000183565b805181602001fd5b6001600160e01b031916630a85bd0160e11b14905062000569565b5060015b949350505050565b62000589838383620002ba60201b620009501760201c565b6001600160a01b038316620005e757620005e181600880546000838152600960205260408120829055600182018355919091527ff3f7a9fe364faab93b216da50a3214154f22a0a2b415b23a84c8169e8b636ee30155565b6200060d565b816001600160a01b0316836001600160a01b0316146200060d576200060d838262000653565b6001600160a01b0382166200062757620002ba8162000700565b826001600160a01b0316826001600160a01b031614620002ba57620002ba8282620007ba565b3b151590565b600060016200066d846200080b60201b62000ec31760201c565b62000679919062000c23565b600083815260076020526040902054909150808214620006cd576001600160a01b03841660009081526006602090815260408083208584528252808320548484528184208190558352600790915290208190555b5060009182526007602090815260408084208490556001600160a01b039094168352600681528383209183525290812055565b600854600090620007149060019062000c23565b600083815260096020526040812054600880549394509092849081106200073f576200073f62000c39565b90600052602060002001549050806008838154811062000763576200076362000c39565b60009182526020808320909101929092558281526009909152604080822084905585825281205560088054806200079e576200079e62000c4f565b6001900381819060005260206000200160009055905550505050565b6000620007d2836200080b60201b62000ec31760201c565b6001600160a01b039093166000908152600660209081526040808320868452825280832085905593825260079052919091209190915550565b60006001600160a01b038216620008785760405162461bcd60e51b815260206004820152602a60248201527f4552433732313a2062616c616e636520717565727920666f7220746865207a65604482015269726f206164647265737360b01b606482015260840162000183565b506001600160a01b031660009081526003602052604090205490565b634e487b7160e01b600052604160045260246000fd5b600181811c90821680620008bf57607f821691505b602082108103620008e057634e487b7160e01b600052602260045260246000fd5b50919050565b601f821115620002ba57600081815260208120601f850160051c810160208610156200090f5750805b601f850160051c820191505b8181101562000930578281556001016200091b565b505050505050565b81516001600160401b0381111562000954576200095462000894565b6200096c81620009658454620008aa565b84620008e6565b602080601f831160018114620009a457600084156200098b5750858301515b600019600386901b1c1916600185901b17855562000930565b600085815260208120601f198616915b82811015620009d557888601518255948401946001909101908401620009b4565b5085821015620009f45787850151600019600388901b60f8161c191681555b5050505050600190811b01905550565b60005b8381101562000a2157818101518382015260200162000a07565b50506000910152565b600082601f83011262000a3c57600080fd5b81516001600160401b038082111562000a595762000a5962000894565b604051601f8301601f19908116603f0116810190828211818310171562000a845762000a8462000894565b8160405283815286602085880101111562000a9e57600080fd5b62000ab184602083016020890162000a04565b9695505050505050565b60008060006060848603121562000ad157600080fd5b83516001600160401b038082111562000ae957600080fd5b62000af78783880162000a2a565b9450602086015191508082111562000b0e57600080fd5b62000b1c8783880162000a2a565b9350604086015191508082111562000b3357600080fd5b5062000b428682870162000a2a565b9150509250925092565b634e487b7160e01b600052601160045260246000fd5b8082018082111562000b785762000b7862000b4c565b92915050565b60006001820162000b935762000b9362000b4c565b5060010190565b600060018060a01b03808716835280861660208401525083604083015260806060830152825180608084015262000bd98160a085016020870162000a04565b601f01601f19169190910160a00195945050505050565b60006020828403121562000c0357600080fd5b81516001600160e01b03198116811462000c1c57600080fd5b9392505050565b8181038181111562000b785762000b7862000b4c565b634e487b7160e01b600052603260045260246000fd5b634e487b7160e01b600052603160045260246000fd5b6123c18062000c756000396000f3fe60806040526004361061021a5760003560e01c80635e439f6611610123578063b88d4fde116100ab578063da3ef23f1161006f578063da3ef23f146105f4578063e550695314610614578063e985e9c51461062a578063f2c7fb0514610673578063f2fde38b1461068857600080fd5b8063b88d4fde14610559578063c668286214610579578063c87b56dd1461058e578063d5abeb01146105ae578063d936547e146105c457600080fd5b8063715018a6116100f2578063715018a6146104dc578063741983c0146104f15780638da5cb5b1461050657806395d89b4114610524578063a22cb4651461053957600080fd5b80635e439f66146104675780636352211e146104875780636c0360eb146104a757806370a08231146104bc57600080fd5b806330cc7ae0116101a6578063438b630011610175578063438b6300146103c05780634a4c560d146103ed5780634f6ccce71461040d57806355f804b31461042d5780635c975abb1461044d57600080fd5b806330cc7ae0146103655780633ccfd60b1461038557806340c10f191461038d57806342842e0e146103a057600080fd5b8063095ea7b3116101ed578063095ea7b3146102d057806318160ddd146102f057806323b872dd1461030f578063262a9dff1461032f5780632f745c591461034557600080fd5b806301ffc9a71461021f57806302329a291461025457806306fdde0314610276578063081812fc14610298575b600080fd5b34801561022b57600080fd5b5061023f61023a366004611c5f565b6106a8565b60405190151581526020015b60405180910390f35b34801561026057600080fd5b5061027461026f366004611c91565b6106d3565b005b34801561028257600080fd5b5061028b610719565b60405161024b9190611cfc565b3480156102a457600080fd5b506102b86102b3366004611d0f565b6107ab565b6040516001600160a01b03909116815260200161024b565b3480156102dc57600080fd5b506102746102eb366004611d3f565b610840565b3480156102fc57600080fd5b506008545b60405190815260200161024b565b34801561031b57600080fd5b5061027461032a366004611d69565b610955565b34801561033b57600080fd5b5061030160115481565b34801561035157600080fd5b50610301610360366004611d3f565b610986565b34801561037157600080fd5b50610274610380366004611da5565b610a1c565b610274610a67565b61027461039b366004611d3f565b610ae9565b3480156103ac57600080fd5b506102746103bb366004611d69565b610b62565b3480156103cc57600080fd5b506103e06103db366004611da5565b610b7d565b60405161024b9190611dc0565b3480156103f957600080fd5b50610274610408366004611da5565b610c1f565b34801561041957600080fd5b50610301610428366004611d0f565b610c6d565b34801561043957600080fd5b50610274610448366004611e90565b610d00565b34801561045957600080fd5b50600e5461023f9060ff1681565b34801561047357600080fd5b50610274610482366004611d0f565b610d3a565b34801561049357600080fd5b506102b86104a2366004611d0f565b610dbe565b3480156104b357600080fd5b5061028b610e35565b3480156104c857600080fd5b506103016104d7366004611da5565b610ec3565b3480156104e857600080fd5b50610274610f4a565b3480156104fd57600080fd5b50610301610f80565b34801561051257600080fd5b50600a546001600160a01b03166102b8565b34801561053057600080fd5b5061028b610f95565b34801561054557600080fd5b50610274610554366004611ed9565b610fa4565b34801561056557600080fd5b50610274610574366004611f0c565b611068565b34801561058557600080fd5b5061028b61109a565b34801561059a57600080fd5b5061028b6105a9366004611d0f565b6110a7565b3480156105ba57600080fd5b50610301600d5481565b3480156105d057600080fd5b5061023f6105df366004611da5565b600f6020526000908152604090205460ff1681565b34801561060057600080fd5b5061027461060f366004611e90565b611185565b34801561062057600080fd5b5061030160105481565b34801561063657600080fd5b5061023f610645366004611f88565b6001600160a01b03918216600090815260056020908152604080832093909416825291909152205460ff1690565b34801561067f57600080fd5b506102746111bb565b34801561069457600080fd5b506102746106a3366004611da5565b6111d2565b60006001600160e01b0319821663780e9d6360e01b14806106cd57506106cd82611270565b92915050565b600a546001600160a01b031633146107065760405162461bcd60e51b81526004016106fd90611fb2565b60405180910390fd5b600e805460ff1916911515919091179055565b60606000805461072890611fe7565b80601f016020809104026020016040519081016040528092919081815260200182805461075490611fe7565b80156107a15780601f10610776576101008083540402835291602001916107a1565b820191906000526020600020905b81548152906001019060200180831161078457829003601f168201915b5050505050905090565b6000818152600260205260408120546001600160a01b03166108245760405162461bcd60e51b815260206004820152602c60248201527f4552433732313a20617070726f76656420717565727920666f72206e6f6e657860448201526b34b9ba32b73a103a37b5b2b760a11b60648201526084016106fd565b506000908152600460205260409020546001600160a01b031690565b600061084b82610dbe565b9050806001600160a01b0316836001600160a01b0316036108b85760405162461bcd60e51b815260206004820152602160248201527f4552433732313a20617070726f76616c20746f2063757272656e74206f776e656044820152603960f91b60648201526084016106fd565b336001600160a01b03821614806108d457506108d48133610645565b6109465760405162461bcd60e51b815260206004820152603860248201527f4552433732313a20617070726f76652063616c6c6572206973206e6f74206f7760448201527f6e6572206e6f7220617070726f76656420666f7220616c6c000000000000000060648201526084016106fd565b61095083836112c0565b505050565b61095f338261132e565b61097b5760405162461bcd60e51b81526004016106fd90612021565b610950838383611425565b600061099183610ec3565b82106109f35760405162461bcd60e51b815260206004820152602b60248201527f455243373231456e756d657261626c653a206f776e657220696e646578206f7560448201526a74206f6620626f756e647360a81b60648201526084016106fd565b506001600160a01b03919091166000908152600660209081526040808320938352929052205490565b600a546001600160a01b03163314610a465760405162461bcd60e51b81526004016106fd90611fb2565b6001600160a01b03166000908152600f60205260409020805460ff19169055565b600a546001600160a01b03163314610a915760405162461bcd60e51b81526004016106fd90611fb2565b604051600090339047908381818185875af1925050503d8060008114610ad3576040519150601f19603f3d011682016040523d82523d6000602084013e610ad8565b606091505b5050905080610ae657600080fd5b50565b6000610af460085490565b600e5490915060ff1615610b0757600080fd5b6001821015610b1557600080fd5b600d54610b228383612088565b1115610b2d57600080fd5b60015b828111610b5c57610b4a84610b458385612088565b6115d0565b80610b548161209b565b915050610b30565b50505050565b61095083838360405180602001604052806000815250611068565b60606000610b8a83610ec3565b905060008167ffffffffffffffff811115610ba757610ba7611e04565b604051908082528060200260200182016040528015610bd0578160200160208202803683370190505b50905060005b82811015610c1757610be88582610986565b828281518110610bfa57610bfa6120b4565b602090810291909101015280610c0f8161209b565b915050610bd6565b509392505050565b600a546001600160a01b03163314610c495760405162461bcd60e51b81526004016106fd90611fb2565b6001600160a01b03166000908152600f60205260409020805460ff19166001179055565b6000610c7860085490565b8210610cdb5760405162461bcd60e51b815260206004820152602c60248201527f455243373231456e756d657261626c653a20676c6f62616c20696e646578206f60448201526b7574206f6620626f756e647360a01b60648201526084016106fd565b60088281548110610cee57610cee6120b4565b90600052602060002001549050919050565b600a546001600160a01b03163314610d2a5760405162461bcd60e51b81526004016106fd90611fb2565b600b610d368282612118565b5050565b600a546001600160a01b03163314610d645760405162461bcd60e51b81526004016106fd90611fb2565b42601055601154610d789062093a80612088565b601255601154610d8b9062093a80612088565b60125560005b60058111610d3657601254610da99062093a80612088565b60125580610db68161209b565b915050610d91565b6000818152600260205260408120546001600160a01b0316806106cd5760405162461bcd60e51b815260206004820152602960248201527f4552433732313a206f776e657220717565727920666f72206e6f6e657869737460448201526832b73a103a37b5b2b760b91b60648201526084016106fd565b600b8054610e4290611fe7565b80601f0160208091040260200160405190810160405280929190818152602001828054610e6e90611fe7565b8015610ebb5780601f10610e9057610100808354040283529160200191610ebb565b820191906000526020600020905b815481529060010190602001808311610e9e57829003601f168201915b505050505081565b60006001600160a01b038216610f2e5760405162461bcd60e51b815260206004820152602a60248201527f4552433732313a2062616c616e636520717565727920666f7220746865207a65604482015269726f206164647265737360b01b60648201526084016106fd565b506001600160a01b031660009081526003602052604090205490565b600a546001600160a01b03163314610f745760405162461bcd60e51b81526004016106fd90611fb2565b610f7e60006115ea565b565b6000610f9063608f3d00426121d8565b905090565b60606001805461072890611fe7565b336001600160a01b03831603610ffc5760405162461bcd60e51b815260206004820152601960248201527f4552433732313a20617070726f766520746f2063616c6c65720000000000000060448201526064016106fd565b3360008181526005602090815260408083206001600160a01b03871680855290835292819020805460ff191686151590811790915590519081529192917f17307eab39ab6107e8899845ad3d59bd9653f200f220920489ca2b5937696c31910160405180910390a35050565b611072338361132e565b61108e5760405162461bcd60e51b81526004016106fd90612021565b610b5c8484848461163c565b600c8054610e4290611fe7565b6000818152600260205260409020546060906001600160a01b03166111265760405162461bcd60e51b815260206004820152602f60248201527f4552433732314d657461646174613a2055524920717565727920666f72206e6f60448201526e3732bc34b9ba32b73a103a37b5b2b760891b60648201526084016106fd565b600061113061166f565b90506000815111611150576040518060200160405280600081525061117e565b8061115a8461167e565b600c60405160200161116e939291906121eb565b6040516020818303038152906040525b9392505050565b600a546001600160a01b031633146111af5760405162461bcd60e51b81526004016106fd90611fb2565b600c610d368282612118565b620151806111c7610f80565b1015610f7e57600080fd5b600a546001600160a01b031633146111fc5760405162461bcd60e51b81526004016106fd90611fb2565b6001600160a01b0381166112615760405162461bcd60e51b815260206004820152602660248201527f4f776e61626c653a206e6577206f776e657220697320746865207a65726f206160448201526564647265737360d01b60648201526084016106fd565b610ae6816115ea565b3b151590565b60006001600160e01b031982166380ac58cd60e01b14806112a157506001600160e01b03198216635b5e139f60e01b145b806106cd57506301ffc9a760e01b6001600160e01b03198316146106cd565b600081815260046020526040902080546001600160a01b0319166001600160a01b03841690811790915581906112f582610dbe565b6001600160a01b03167f8c5be1e5ebec7d5bd14f71427d1e84f3dd0314c0f7b2291e5b200ac8c7c3b92560405160405180910390a45050565b6000818152600260205260408120546001600160a01b03166113a75760405162461bcd60e51b815260206004820152602c60248201527f4552433732313a206f70657261746f7220717565727920666f72206e6f6e657860448201526b34b9ba32b73a103a37b5b2b760a11b60648201526084016106fd565b60006113b283610dbe565b9050806001600160a01b0316846001600160a01b031614806113ed5750836001600160a01b03166113e2846107ab565b6001600160a01b0316145b8061141d57506001600160a01b0380821660009081526005602090815260408083209388168352929052205460ff165b949350505050565b826001600160a01b031661143882610dbe565b6001600160a01b0316146114a05760405162461bcd60e51b815260206004820152602960248201527f4552433732313a207472616e73666572206f6620746f6b656e2074686174206960448201526839903737ba1037bbb760b91b60648201526084016106fd565b6001600160a01b0382166115025760405162461bcd60e51b8152602060048201526024808201527f4552433732313a207472616e7366657220746f20746865207a65726f206164646044820152637265737360e01b60648201526084016106fd565b61150d83838361177f565b6115186000826112c0565b6001600160a01b03831660009081526003602052604081208054600192906115419084906121d8565b90915550506001600160a01b038216600090815260036020526040812080546001929061156f908490612088565b909155505060008181526002602052604080822080546001600160a01b0319166001600160a01b0386811691821790925591518493918716917fddf252ad1be2c89b69c2b068fc378daa952ba7f163c4a11628f55a4df523b3ef91a4505050565b610d36828260405180602001604052806000815250611837565b600a80546001600160a01b038381166001600160a01b0319831681179093556040519116919082907f8be0079c531659141344cd1fd0a4f28419497f9722a3daafe3b4186f6b6457e090600090a35050565b611647848484611425565b6116538484848461186a565b610b5c5760405162461bcd60e51b81526004016106fd9061228b565b6060600b805461072890611fe7565b6060816000036116a55750506040805180820190915260018152600360fc1b602082015290565b8160005b81156116cf57806116b98161209b565b91506116c89050600a836122f3565b91506116a9565b60008167ffffffffffffffff8111156116ea576116ea611e04565b6040519080825280601f01601f191660200182016040528015611714576020820181803683370190505b5090505b841561141d576117296001836121d8565b9150611736600a86612307565b611741906030612088565b60f81b818381518110611756576117566120b4565b60200101906001600160f81b031916908160001a905350611778600a866122f3565b9450611718565b6001600160a01b0383166117da576117d581600880546000838152600960205260408120829055600182018355919091527ff3f7a9fe364faab93b216da50a3214154f22a0a2b415b23a84c8169e8b636ee30155565b6117fd565b816001600160a01b0316836001600160a01b0316146117fd576117fd838261196b565b6001600160a01b0382166118145761095081611a08565b826001600160a01b0316826001600160a01b031614610950576109508282611ab7565b6118418383611afb565b61184e600084848461186a565b6109505760405162461bcd60e51b81526004016106fd9061228b565b60006001600160a01b0384163b1561196057604051630a85bd0160e11b81526001600160a01b0385169063150b7a02906118ae90339089908890889060040161231b565b6020604051808303816000875af19250505080156118e9575060408051601f3d908101601f191682019092526118e691810190612358565b60015b611946573d808015611917576040519150601f19603f3d011682016040523d82523d6000602084013e61191c565b606091505b50805160000361193e5760405162461bcd60e51b81526004016106fd9061228b565b805181602001fd5b6001600160e01b031916630a85bd0160e11b14905061141d565b506001949350505050565b6000600161197884610ec3565b61198291906121d8565b6000838152600760205260409020549091508082146119d5576001600160a01b03841660009081526006602090815260408083208584528252808320548484528184208190558352600790915290208190555b5060009182526007602090815260408084208490556001600160a01b039094168352600681528383209183525290812055565b600854600090611a1a906001906121d8565b60008381526009602052604081205460088054939450909284908110611a4257611a426120b4565b906000526020600020015490508060088381548110611a6357611a636120b4565b6000918252602080832090910192909255828152600990915260408082208490558582528120556008805480611a9b57611a9b612375565b6001900381819060005260206000200160009055905550505050565b6000611ac283610ec3565b6001600160a01b039093166000908152600660209081526040808320868452825280832085905593825260079052919091209190915550565b6001600160a01b038216611b515760405162461bcd60e51b815260206004820181905260248201527f4552433732313a206d696e7420746f20746865207a65726f206164647265737360448201526064016106fd565b6000818152600260205260409020546001600160a01b031615611bb65760405162461bcd60e51b815260206004820152601c60248201527f4552433732313a20746f6b656e20616c7265616479206d696e7465640000000060448201526064016106fd565b611bc26000838361177f565b6001600160a01b0382166000908152600360205260408120805460019290611beb908490612088565b909155505060008181526002602052604080822080546001600160a01b0319166001600160a01b03861690811790915590518392907fddf252ad1be2c89b69c2b068fc378daa952ba7f163c4a11628f55a4df523b3ef908290a45050565b6001600160e01b031981168114610ae657600080fd5b600060208284031215611c7157600080fd5b813561117e81611c49565b80358015158114611c8c57600080fd5b919050565b600060208284031215611ca357600080fd5b61117e82611c7c565b60005b83811015611cc7578181015183820152602001611caf565b50506000910152565b60008151808452611ce8816020860160208601611cac565b601f01601f19169290920160200192915050565b60208152600061117e6020830184611cd0565b600060208284031215611d2157600080fd5b5035919050565b80356001600160a01b0381168114611c8c57600080fd5b60008060408385031215611d5257600080fd5b611d5b83611d28565b946020939093013593505050565b600080600060608486031215611d7e57600080fd5b611d8784611d28565b9250611d9560208501611d28565b9150604084013590509250925092565b600060208284031215611db757600080fd5b61117e82611d28565b6020808252825182820181905260009190848201906040850190845b81811015611df857835183529284019291840191600101611ddc565b50909695505050505050565b634e487b7160e01b600052604160045260246000fd5b600067ffffffffffffffff80841115611e3557611e35611e04565b604051601f8501601f19908116603f01168101908282118183101715611e5d57611e5d611e04565b81604052809350858152868686011115611e7657600080fd5b858560208301376000602087830101525050509392505050565b600060208284031215611ea257600080fd5b813567ffffffffffffffff811115611eb957600080fd5b8201601f81018413611eca57600080fd5b61141d84823560208401611e1a565b60008060408385031215611eec57600080fd5b611ef583611d28565b9150611f0360208401611c7c565b90509250929050565b60008060008060808587031215611f2257600080fd5b611f2b85611d28565b9350611f3960208601611d28565b925060408501359150606085013567ffffffffffffffff811115611f5c57600080fd5b8501601f81018713611f6d57600080fd5b611f7c87823560208401611e1a565b91505092959194509250565b60008060408385031215611f9b57600080fd5b611fa483611d28565b9150611f0360208401611d28565b6020808252818101527f4f776e61626c653a2063616c6c6572206973206e6f7420746865206f776e6572604082015260600190565b600181811c90821680611ffb57607f821691505b60208210810361201b57634e487b7160e01b600052602260045260246000fd5b50919050565b60208082526031908201527f4552433732313a207472616e736665722063616c6c6572206973206e6f74206f6040820152701ddb995c881b9bdc88185c1c1c9bdd9959607a1b606082015260800190565b634e487b7160e01b600052601160045260246000fd5b808201808211156106cd576106cd612072565b6000600182016120ad576120ad612072565b5060010190565b634e487b7160e01b600052603260045260246000fd5b601f82111561095057600081815260208120601f850160051c810160208610156120f15750805b601f850160051c820191505b81811015612110578281556001016120fd565b505050505050565b815167ffffffffffffffff81111561213257612132611e04565b612146816121408454611fe7565b846120ca565b602080601f83116001811461217b57600084156121635750858301515b600019600386901b1c1916600185901b178555612110565b600085815260208120601f198616915b828110156121aa5788860151825594840194600190910190840161218b565b50858210156121c85787850151600019600388901b60f8161c191681555b5050505050600190811b01905550565b818103818111156106cd576106cd612072565b6000845160206121fe8285838a01611cac565b8551918401916122118184848a01611cac565b855492019160009061222281611fe7565b6001828116801561223a576001811461224f5761227b565b60ff198416875282151583028701945061227b565b896000528560002060005b848110156122735781548982015290830190870161225a565b505082870194505b50929a9950505050505050505050565b60208082526032908201527f4552433732313a207472616e7366657220746f206e6f6e20455243373231526560408201527131b2b4bb32b91034b6b83632b6b2b73a32b960711b606082015260800190565b634e487b7160e01b600052601260045260246000fd5b600082612302576123026122dd565b500490565b600082612316576123166122dd565b500690565b6001600160a01b038581168252841660208201526040810183905260806060820181905260009061234e90830184611cd0565b9695505050505050565b60006020828403121561236a57600080fd5b815161117e81611c49565b634e487b7160e01b600052603160045260246000fdfea2646970667358221220004fdad46d88a2726814744a5f76c5cc6af84f3f938a457619d97d9e8cdb25e964736f6c634300081100334552433732313a207472616e7366657220746f206e6f6e204552433732315265",
    "linkReferences": {}
  },
  "methodIdentifiers": {
    "age()": "262a9dff",
    "approve(address,uint256)": "095ea7b3",
    "balanceOf(address)": "70a08231",
    "baseExtension()": "c6682862",
    "baseURI()": "6c0360eb",
    "changeAge(uint256)": "5e439f66",
    "checkAge()": "741983c0",
    "getApproved(uint256)": "081812fc",
    "isApprovedForAll(address,address)": "e985e9c5",
    "maxSupply()": "d5abeb01",
    "mint(address,uint256)": "40c10f19",
    "name()": "06fdde03",
    "nest()": "f2c7fb05",
    "newAge()": "e5506953",
    "owner()": "8da5cb5b",
    "ownerOf(uint256)": "6352211e",
    "pause(bool)": "02329a29",
    "paused()": "5c975abb",
    "removeWhitelistUser(address)": "30cc7ae0",
    "renounceOwnership()": "715018a6",
    "safeTransferFrom(address,address,uint256)": "42842e0e",
    "safeTransferFrom(address,address,uint256,bytes)": "b88d4fde",
    "setApprovalForAll(address,bool)": "a22cb465",
    "setBaseExtension(string)": "da3ef23f",
    "setBaseURI(string)": "55f804b3",
    "supportsInterface(bytes4)": "01ffc9a7",
    "symbol()": "95d89b41",
    "tokenByIndex(uint256)": "4f6ccce7",
    "tokenOfOwnerByIndex(address,uint256)": "2f745c59",
    "tokenURI(uint256)": "c87b56dd",
    "totalSupply()": "18160ddd",
    "transferFrom(address,address,uint256)": "23b872dd",
    "transferOwnership(address)": "f2fde38b",
    "walletOfOwner(address)": "438b6300",
    "whitelistUser(address)": "4a4c560d",
    "whitelisted(address)": "d936547e",
    "withdraw()": "3ccfd60b"
  },
  "id": 18
}